{
    "_format": "hh-sol-artifact-1",
    "contractName": "chocoGolemsNFT",
    "sourceName": "contracts/chocoGolemsNFT.sol",
    "abi": [
        {
            "inputs": [],
            "stateMutability": "payable",
            "type": "constructor"
        },
        {
            "anonymous": false,
            "inputs": [
                {
                    "indexed": true,
                    "internalType": "address",
                    "name": "owner",
                    "type": "address"
                },
                {
                    "indexed": true,
                    "internalType": "address",
                    "name": "approved",
                    "type": "address"
                },
                {
                    "indexed": true,
                    "internalType": "uint256",
                    "name": "tokenId",
                    "type": "uint256"
                }
            ],
            "name": "Approval",
            "type": "event"
        },
        {
            "anonymous": false,
            "inputs": [
                {
                    "indexed": true,
                    "internalType": "address",
                    "name": "owner",
                    "type": "address"
                },
                {
                    "indexed": true,
                    "internalType": "address",
                    "name": "operator",
                    "type": "address"
                },
                {
                    "indexed": false,
                    "internalType": "bool",
                    "name": "approved",
                    "type": "bool"
                }
            ],
            "name": "ApprovalForAll",
            "type": "event"
        },
        {
            "anonymous": false,
            "inputs": [
                {
                    "indexed": true,
                    "internalType": "address",
                    "name": "previousOwner",
                    "type": "address"
                },
                {
                    "indexed": true,
                    "internalType": "address",
                    "name": "newOwner",
                    "type": "address"
                }
            ],
            "name": "OwnershipTransferred",
            "type": "event"
        },
        {
            "anonymous": false,
            "inputs": [
                {
                    "indexed": true,
                    "internalType": "address",
                    "name": "from",
                    "type": "address"
                },
                {
                    "indexed": true,
                    "internalType": "address",
                    "name": "to",
                    "type": "address"
                },
                {
                    "indexed": true,
                    "internalType": "uint256",
                    "name": "tokenId",
                    "type": "uint256"
                }
            ],
            "name": "Transfer",
            "type": "event"
        },
        {
            "inputs": [
                {
                    "internalType": "address",
                    "name": "to",
                    "type": "address"
                },
                {
                    "internalType": "uint256",
                    "name": "tokenId",
                    "type": "uint256"
                }
            ],
            "name": "approve",
            "outputs": [],
            "stateMutability": "nonpayable",
            "type": "function"
        },
        {
            "inputs": [
                {
                    "internalType": "address",
                    "name": "owner",
                    "type": "address"
                }
            ],
            "name": "balanceOf",
            "outputs": [
                {
                    "internalType": "uint256",
                    "name": "",
                    "type": "uint256"
                }
            ],
            "stateMutability": "view",
            "type": "function"
        },
        {
            "inputs": [],
            "name": "baseURI",
            "outputs": [
                {
                    "internalType": "string",
                    "name": "",
                    "type": "string"
                }
            ],
            "stateMutability": "view",
            "type": "function"
        },
        {
            "inputs": [
                {
                    "internalType": "uint256",
                    "name": "tokenId",
                    "type": "uint256"
                }
            ],
            "name": "getApproved",
            "outputs": [
                {
                    "internalType": "address",
                    "name": "",
                    "type": "address"
                }
            ],
            "stateMutability": "view",
            "type": "function"
        },
        {
            "inputs": [
                {
                    "internalType": "address",
                    "name": "owner",
                    "type": "address"
                },
                {
                    "internalType": "address",
                    "name": "operator",
                    "type": "address"
                }
            ],
            "name": "isApprovedForAll",
            "outputs": [
                {
                    "internalType": "bool",
                    "name": "",
                    "type": "bool"
                }
            ],
            "stateMutability": "view",
            "type": "function"
        },
        {
            "inputs": [],
            "name": "isPublicMintEnabled",
            "outputs": [
                {
                    "internalType": "bool",
                    "name": "",
                    "type": "bool"
                }
            ],
            "stateMutability": "view",
            "type": "function"
        },
        {
            "inputs": [],
            "name": "maxPerWallet",
            "outputs": [
                {
                    "internalType": "uint256",
                    "name": "",
                    "type": "uint256"
                }
            ],
            "stateMutability": "view",
            "type": "function"
        },
        {
            "inputs": [],
            "name": "maxSupply",
            "outputs": [
                {
                    "internalType": "uint256",
                    "name": "",
                    "type": "uint256"
                }
            ],
            "stateMutability": "view",
            "type": "function"
        },
        {
            "inputs": [
                {
                    "internalType": "uint256",
                    "name": "quantity_",
                    "type": "uint256"
                }
            ],
            "name": "mint",
            "outputs": [],
            "stateMutability": "payable",
            "type": "function"
        },
        {
            "inputs": [],
            "name": "mintPrice",
            "outputs": [
                {
                    "internalType": "uint256",
                    "name": "",
                    "type": "uint256"
                }
            ],
            "stateMutability": "view",
            "type": "function"
        },
        {
            "inputs": [],
            "name": "name",
            "outputs": [
                {
                    "internalType": "string",
                    "name": "",
                    "type": "string"
                }
            ],
            "stateMutability": "view",
            "type": "function"
        },
        {
            "inputs": [],
            "name": "owner",
            "outputs": [
                {
                    "internalType": "address",
                    "name": "",
                    "type": "address"
                }
            ],
            "stateMutability": "view",
            "type": "function"
        },
        {
            "inputs": [
                {
                    "internalType": "uint256",
                    "name": "tokenId",
                    "type": "uint256"
                }
            ],
            "name": "ownerOf",
            "outputs": [
                {
                    "internalType": "address",
                    "name": "",
                    "type": "address"
                }
            ],
            "stateMutability": "view",
            "type": "function"
        },
        {
            "inputs": [],
            "name": "renounceOwnership",
            "outputs": [],
            "stateMutability": "nonpayable",
            "type": "function"
        },
        {
            "inputs": [
                {
                    "internalType": "address",
                    "name": "from",
                    "type": "address"
                },
                {
                    "internalType": "address",
                    "name": "to",
                    "type": "address"
                },
                {
                    "internalType": "uint256",
                    "name": "tokenId",
                    "type": "uint256"
                }
            ],
            "name": "safeTransferFrom",
            "outputs": [],
            "stateMutability": "nonpayable",
            "type": "function"
        },
        {
            "inputs": [
                {
                    "internalType": "address",
                    "name": "from",
                    "type": "address"
                },
                {
                    "internalType": "address",
                    "name": "to",
                    "type": "address"
                },
                {
                    "internalType": "uint256",
                    "name": "tokenId",
                    "type": "uint256"
                },
                {
                    "internalType": "bytes",
                    "name": "_data",
                    "type": "bytes"
                }
            ],
            "name": "safeTransferFrom",
            "outputs": [],
            "stateMutability": "nonpayable",
            "type": "function"
        },
        {
            "inputs": [
                {
                    "internalType": "address",
                    "name": "operator",
                    "type": "address"
                },
                {
                    "internalType": "bool",
                    "name": "approved",
                    "type": "bool"
                }
            ],
            "name": "setApprovalForAll",
            "outputs": [],
            "stateMutability": "nonpayable",
            "type": "function"
        },
        {
            "inputs": [
                {
                    "internalType": "string",
                    "name": "baseURI_",
                    "type": "string"
                }
            ],
            "name": "setBaseURI",
            "outputs": [],
            "stateMutability": "nonpayable",
            "type": "function"
        },
        {
            "inputs": [
                {
                    "internalType": "bool",
                    "name": "isPublicMintEnabled_",
                    "type": "bool"
                }
            ],
            "name": "setPublicMintEnable",
            "outputs": [],
            "stateMutability": "nonpayable",
            "type": "function"
        },
        {
            "inputs": [
                {
                    "internalType": "bytes4",
                    "name": "interfaceId",
                    "type": "bytes4"
                }
            ],
            "name": "supportsInterface",
            "outputs": [
                {
                    "internalType": "bool",
                    "name": "",
                    "type": "bool"
                }
            ],
            "stateMutability": "view",
            "type": "function"
        },
        {
            "inputs": [],
            "name": "symbol",
            "outputs": [
                {
                    "internalType": "string",
                    "name": "",
                    "type": "string"
                }
            ],
            "stateMutability": "view",
            "type": "function"
        },
        {
            "inputs": [
                {
                    "internalType": "uint256",
                    "name": "tokenId_",
                    "type": "uint256"
                }
            ],
            "name": "tokenURI",
            "outputs": [
                {
                    "internalType": "string",
                    "name": "",
                    "type": "string"
                }
            ],
            "stateMutability": "view",
            "type": "function"
        },
        {
            "inputs": [],
            "name": "totalSupply",
            "outputs": [
                {
                    "internalType": "uint256",
                    "name": "",
                    "type": "uint256"
                }
            ],
            "stateMutability": "view",
            "type": "function"
        },
        {
            "inputs": [
                {
                    "internalType": "address",
                    "name": "from",
                    "type": "address"
                },
                {
                    "internalType": "address",
                    "name": "to",
                    "type": "address"
                },
                {
                    "internalType": "uint256",
                    "name": "tokenId",
                    "type": "uint256"
                }
            ],
            "name": "transferFrom",
            "outputs": [],
            "stateMutability": "nonpayable",
            "type": "function"
        },
        {
            "inputs": [
                {
                    "internalType": "address",
                    "name": "newOwner",
                    "type": "address"
                }
            ],
            "name": "transferOwnership",
            "outputs": [],
            "stateMutability": "nonpayable",
            "type": "function"
        },
        {
            "inputs": [
                {
                    "internalType": "address",
                    "name": "",
                    "type": "address"
                }
            ],
            "name": "walletMint",
            "outputs": [
                {
                    "internalType": "uint256",
                    "name": "",
                    "type": "uint256"
                }
            ],
            "stateMutability": "view",
            "type": "function"
        },
        {
            "inputs": [],
            "name": "withdraw",
            "outputs": [],
            "stateMutability": "nonpayable",
            "type": "function"
        },
        {
            "inputs": [],
            "name": "withdrawWallet",
            "outputs": [
                {
                    "internalType": "address payable",
                    "name": "",
                    "type": "address"
                }
            ],
            "stateMutability": "view",
            "type": "function"
        }
    ],
    "bytecode": "0x60806040526040518060400160405280600b81526020017f63686f636f476f6c656d730000000000000000000000000000000000000000008152506040518060400160405280600281526020017f634700000000000000000000000000000000000000000000000000000000000081525081600090816200008191906200042b565b5080600190816200009391906200042b565b505050620000b6620000aa620000e360201b60201c565b620000eb60201b60201c565b66b1a2bc2ec500006007819055506000600881905550610bb86009819055506005600a8190555062000512565b600033905090565b6000600660009054906101000a900473ffffffffffffffffffffffffffffffffffffffff16905081600660006101000a81548173ffffffffffffffffffffffffffffffffffffffff021916908373ffffffffffffffffffffffffffffffffffffffff1602179055508173ffffffffffffffffffffffffffffffffffffffff168173ffffffffffffffffffffffffffffffffffffffff167f8be0079c531659141344cd1fd0a4f28419497f9722a3daafe3b4186f6b6457e060405160405180910390a35050565b600081519050919050565b7f4e487b7100000000000000000000000000000000000000000000000000000000600052604160045260246000fd5b7f4e487b7100000000000000000000000000000000000000000000000000000000600052602260045260246000fd5b600060028204905060018216806200023357607f821691505b602082108103620002495762000248620001eb565b5b50919050565b60008190508160005260206000209050919050565b60006020601f8301049050919050565b600082821b905092915050565b600060088302620002b37fffffffffffffffffffffffffffffffffffffffffffffffffffffffffffffffff8262000274565b620002bf868362000274565b95508019841693508086168417925050509392505050565b6000819050919050565b6000819050919050565b60006200030c620003066200030084620002d7565b620002e1565b620002d7565b9050919050565b6000819050919050565b6200032883620002eb565b62000340620003378262000313565b84845462000281565b825550505050565b600090565b6200035762000348565b620003648184846200031d565b505050565b5b818110156200038c57620003806000826200034d565b6001810190506200036a565b5050565b601f821115620003db57620003a5816200024f565b620003b08462000264565b81016020851015620003c0578190505b620003d8620003cf8562000264565b83018262000369565b50505b505050565b600082821c905092915050565b60006200040060001984600802620003e0565b1980831691505092915050565b60006200041b8383620003ed565b9150826002028217905092915050565b6200043682620001b1565b67ffffffffffffffff811115620004525762000451620001bc565b5b6200045e82546200021a565b6200046b82828562000390565b600060209050601f831160018114620004a357600084156200048e578287015190505b6200049a85826200040d565b8655506200050a565b601f198416620004b3866200024f565b60005b82811015620004dd57848901518255600182019150602085019450602081019050620004b6565b86831015620004fd5784890151620004f9601f891682620003ed565b8355505b6001600288020188555050505b505050505050565b613a8080620005226000396000f3fe6080604052600436106101b75760003560e01c80636c0360eb116100ec578063a0712d681161008a578063c87b56dd11610064578063c87b56dd146105d9578063d5abeb0114610616578063e985e9c514610641578063f2fde38b1461067e576101b7565b8063a0712d681461056b578063a22cb46514610587578063b88d4fde146105b0576101b7565b8063805baf17116100c6578063805baf17146104c157806385d178f4146104ea5780638da5cb5b1461051557806395d89b4114610540576101b7565b80636c0360eb1461044257806370a082311461046d578063715018a6146104aa576101b7565b806323b872dd11610159578063453c231011610133578063453c23101461038657806355f804b3146103b15780636352211e146103da5780636817c76c14610417576101b7565b806323b872dd1461031d5780633ccfd60b1461034657806342842e0e1461035d576101b7565b8063081812fc11610195578063081812fc1461024f578063095ea7b31461028c5780631056ae31146102b557806318160ddd146102f2576101b7565b80630116bc2d146101bc57806301ffc9a7146101e757806306fdde0314610224575b600080fd5b3480156101c857600080fd5b506101d16106a7565b6040516101de9190612192565b60405180910390f35b3480156101f357600080fd5b5061020e60048036038101906102099190612219565b6106ba565b60405161021b9190612192565b60405180910390f35b34801561023057600080fd5b5061023961079c565b60405161024691906122d6565b60405180910390f35b34801561025b57600080fd5b506102766004803603810190610271919061232e565b61082e565b604051610283919061239c565b60405180910390f35b34801561029857600080fd5b506102b360048036038101906102ae91906123e3565b6108b3565b005b3480156102c157600080fd5b506102dc60048036038101906102d79190612423565b6109ca565b6040516102e9919061245f565b60405180910390f35b3480156102fe57600080fd5b506103076109e2565b604051610314919061245f565b60405180910390f35b34801561032957600080fd5b50610344600480360381019061033f919061247a565b6109e8565b005b34801561035257600080fd5b5061035b610a48565b005b34801561036957600080fd5b50610384600480360381019061037f919061247a565b610b95565b005b34801561039257600080fd5b5061039b610bb5565b6040516103a8919061245f565b60405180910390f35b3480156103bd57600080fd5b506103d860048036038101906103d39190612602565b610bbb565b005b3480156103e657600080fd5b5061040160048036038101906103fc919061232e565b610c4a565b60405161040e919061239c565b60405180910390f35b34801561042357600080fd5b5061042c610cfb565b604051610439919061245f565b60405180910390f35b34801561044e57600080fd5b50610457610d01565b60405161046491906122d6565b60405180910390f35b34801561047957600080fd5b50610494600480360381019061048f9190612423565b610d8f565b6040516104a1919061245f565b60405180910390f35b3480156104b657600080fd5b506104bf610e46565b005b3480156104cd57600080fd5b506104e860048036038101906104e39190612677565b610ece565b005b3480156104f657600080fd5b506104ff610f67565b60405161050c91906126c5565b60405180910390f35b34801561052157600080fd5b5061052a610f8d565b604051610537919061239c565b60405180910390f35b34801561054c57600080fd5b50610555610fb7565b60405161056291906122d6565b60405180910390f35b6105856004803603810190610580919061232e565b611049565b005b34801561059357600080fd5b506105ae60048036038101906105a991906126e0565b611223565b005b3480156105bc57600080fd5b506105d760048036038101906105d291906127c1565b611239565b005b3480156105e557600080fd5b5061060060048036038101906105fb919061232e565b61129b565b60405161060d91906122d6565b60405180910390f35b34801561062257600080fd5b5061062b611317565b604051610638919061245f565b60405180910390f35b34801561064d57600080fd5b5061066860048036038101906106639190612844565b61131d565b6040516106759190612192565b60405180910390f35b34801561068a57600080fd5b506106a560048036038101906106a09190612423565b6113b1565b005b600b60009054906101000a900460ff1681565b60007f80ac58cd000000000000000000000000000000000000000000000000000000007bffffffffffffffffffffffffffffffffffffffffffffffffffffffff1916827bffffffffffffffffffffffffffffffffffffffffffffffffffffffff1916148061078557507f5b5e139f000000000000000000000000000000000000000000000000000000007bffffffffffffffffffffffffffffffffffffffffffffffffffffffff1916827bffffffffffffffffffffffffffffffffffffffffffffffffffffffff1916145b806107955750610794826114a8565b5b9050919050565b6060600080546107ab906128b3565b80601f01602080910402602001604051908101604052809291908181526020018280546107d7906128b3565b80156108245780601f106107f957610100808354040283529160200191610824565b820191906000526020600020905b81548152906001019060200180831161080757829003601f168201915b5050505050905090565b600061083982611512565b610878576040517f08c379a000000000000000000000000000000000000000000000000000000000815260040161086f90612956565b60405180910390fd5b6004600083815260200190815260200160002060009054906101000a900473ffffffffffffffffffffffffffffffffffffffff169050919050565b60006108be82610c4a565b90508073ffffffffffffffffffffffffffffffffffffffff168373ffffffffffffffffffffffffffffffffffffffff160361092e576040517f08c379a0000000000000000000000000000000000000000000000000000000008152600401610925906129e8565b60405180910390fd5b8073ffffffffffffffffffffffffffffffffffffffff1661094d61157e565b73ffffffffffffffffffffffffffffffffffffffff16148061097c575061097b8161097661157e565b61131d565b5b6109bb576040517f08c379a00000000000000000000000000000000000000000000000000000000081526004016109b290612a7a565b60405180910390fd5b6109c58383611586565b505050565b600e6020528060005260406000206000915090505481565b60085481565b6109f96109f361157e565b8261163f565b610a38576040517f08c379a0000000000000000000000000000000000000000000000000000000008152600401610a2f90612b0c565b60405180910390fd5b610a4383838361171d565b505050565b610a5061157e565b73ffffffffffffffffffffffffffffffffffffffff16610a6e610f8d565b73ffffffffffffffffffffffffffffffffffffffff1614610ac4576040517f08c379a0000000000000000000000000000000000000000000000000000000008152600401610abb90612b78565b60405180910390fd5b6000600d60009054906101000a900473ffffffffffffffffffffffffffffffffffffffff1673ffffffffffffffffffffffffffffffffffffffff1647604051610b0c90612bc9565b60006040518083038185875af1925050503d8060008114610b49576040519150601f19603f3d011682016040523d82523d6000602084013e610b4e565b606091505b5050905080610b92576040517f08c379a0000000000000000000000000000000000000000000000000000000008152600401610b8990612c2a565b60405180910390fd5b50565b610bb083838360405180602001604052806000815250611239565b505050565b600a5481565b610bc361157e565b73ffffffffffffffffffffffffffffffffffffffff16610be1610f8d565b73ffffffffffffffffffffffffffffffffffffffff1614610c37576040517f08c379a0000000000000000000000000000000000000000000000000000000008152600401610c2e90612b78565b60405180910390fd5b80600c9081610c469190612df6565b5050565b6000806002600084815260200190815260200160002060009054906101000a900473ffffffffffffffffffffffffffffffffffffffff169050600073ffffffffffffffffffffffffffffffffffffffff168173ffffffffffffffffffffffffffffffffffffffff1603610cf2576040517f08c379a0000000000000000000000000000000000000000000000000000000008152600401610ce990612f3a565b60405180910390fd5b80915050919050565b60075481565b600c8054610d0e906128b3565b80601f0160208091040260200160405190810160405280929190818152602001828054610d3a906128b3565b8015610d875780601f10610d5c57610100808354040283529160200191610d87565b820191906000526020600020905b815481529060010190602001808311610d6a57829003601f168201915b505050505081565b60008073ffffffffffffffffffffffffffffffffffffffff168273ffffffffffffffffffffffffffffffffffffffff1603610dff576040517f08c379a0000000000000000000000000000000000000000000000000000000008152600401610df690612fcc565b60405180910390fd5b600360008373ffffffffffffffffffffffffffffffffffffffff1673ffffffffffffffffffffffffffffffffffffffff168152602001908152602001600020549050919050565b610e4e61157e565b73ffffffffffffffffffffffffffffffffffffffff16610e6c610f8d565b73ffffffffffffffffffffffffffffffffffffffff1614610ec2576040517f08c379a0000000000000000000000000000000000000000000000000000000008152600401610eb990612b78565b60405180910390fd5b610ecc6000611983565b565b610ed661157e565b73ffffffffffffffffffffffffffffffffffffffff16610ef4610f8d565b73ffffffffffffffffffffffffffffffffffffffff1614610f4a576040517f08c379a0000000000000000000000000000000000000000000000000000000008152600401610f4190612b78565b60405180910390fd5b80600b60006101000a81548160ff02191690831515021790555050565b600d60009054906101000a900473ffffffffffffffffffffffffffffffffffffffff1681565b6000600660009054906101000a900473ffffffffffffffffffffffffffffffffffffffff16905090565b606060018054610fc6906128b3565b80601f0160208091040260200160405190810160405280929190818152602001828054610ff2906128b3565b801561103f5780601f106110145761010080835404028352916020019161103f565b820191906000526020600020905b81548152906001019060200180831161102257829003601f168201915b5050505050905090565b600b60009054906101000a900460ff16611098576040517f08c379a000000000000000000000000000000000000000000000000000000000815260040161108f90613038565b60405180910390fd5b600954816008546110a99190613087565b11156110ea576040517f08c379a00000000000000000000000000000000000000000000000000000000081526004016110e190613107565b60405180910390fd5b600a5481600e60003373ffffffffffffffffffffffffffffffffffffffff1673ffffffffffffffffffffffffffffffffffffffff168152602001908152602001600020546111389190613087565b1115611179576040517f08c379a000000000000000000000000000000000000000000000000000000000815260040161117090613173565b60405180910390fd5b806007546111879190613193565b3410156111c9576040517f08c379a00000000000000000000000000000000000000000000000000000000081526004016111c090613221565b60405180910390fd5b60005b8181101561121f57600060016008546111e59190613087565b90506001600860008282546111fa9190613087565b9250508190555061120b3382611a49565b50808061121790613241565b9150506111cc565b5050565b61123561122e61157e565b8383611a67565b5050565b61124a61124461157e565b8361163f565b611289576040517f08c379a000000000000000000000000000000000000000000000000000000000815260040161128090612b0c565b60405180910390fd5b61129584848484611bd3565b50505050565b60606112a682611512565b6112e5576040517f08c379a00000000000000000000000000000000000000000000000000000000081526004016112dc906132fb565b60405180910390fd5b600c6112f083611c2f565b604051602001611301929190613426565b6040516020818303038152906040529050919050565b60095481565b6000600560008473ffffffffffffffffffffffffffffffffffffffff1673ffffffffffffffffffffffffffffffffffffffff16815260200190815260200160002060008373ffffffffffffffffffffffffffffffffffffffff1673ffffffffffffffffffffffffffffffffffffffff16815260200190815260200160002060009054906101000a900460ff16905092915050565b6113b961157e565b73ffffffffffffffffffffffffffffffffffffffff166113d7610f8d565b73ffffffffffffffffffffffffffffffffffffffff161461142d576040517f08c379a000000000000000000000000000000000000000000000000000000000815260040161142490612b78565b60405180910390fd5b600073ffffffffffffffffffffffffffffffffffffffff168173ffffffffffffffffffffffffffffffffffffffff160361149c576040517f08c379a0000000000000000000000000000000000000000000000000000000008152600401611493906134c7565b60405180910390fd5b6114a581611983565b50565b60007f01ffc9a7000000000000000000000000000000000000000000000000000000007bffffffffffffffffffffffffffffffffffffffffffffffffffffffff1916827bffffffffffffffffffffffffffffffffffffffffffffffffffffffff1916149050919050565b60008073ffffffffffffffffffffffffffffffffffffffff166002600084815260200190815260200160002060009054906101000a900473ffffffffffffffffffffffffffffffffffffffff1673ffffffffffffffffffffffffffffffffffffffff1614159050919050565b600033905090565b816004600083815260200190815260200160002060006101000a81548173ffffffffffffffffffffffffffffffffffffffff021916908373ffffffffffffffffffffffffffffffffffffffff160217905550808273ffffffffffffffffffffffffffffffffffffffff166115f983610c4a565b73ffffffffffffffffffffffffffffffffffffffff167f8c5be1e5ebec7d5bd14f71427d1e84f3dd0314c0f7b2291e5b200ac8c7c3b92560405160405180910390a45050565b600061164a82611512565b611689576040517f08c379a000000000000000000000000000000000000000000000000000000000815260040161168090613559565b60405180910390fd5b600061169483610c4a565b90508073ffffffffffffffffffffffffffffffffffffffff168473ffffffffffffffffffffffffffffffffffffffff16148061170357508373ffffffffffffffffffffffffffffffffffffffff166116eb8461082e565b73ffffffffffffffffffffffffffffffffffffffff16145b806117145750611713818561131d565b5b91505092915050565b8273ffffffffffffffffffffffffffffffffffffffff1661173d82610c4a565b73ffffffffffffffffffffffffffffffffffffffff1614611793576040517f08c379a000000000000000000000000000000000000000000000000000000000815260040161178a906135eb565b60405180910390fd5b600073ffffffffffffffffffffffffffffffffffffffff168273ffffffffffffffffffffffffffffffffffffffff1603611802576040517f08c379a00000000000000000000000000000000000000000000000000000000081526004016117f99061367d565b60405180910390fd5b61180d838383611d8f565b611818600082611586565b6001600360008573ffffffffffffffffffffffffffffffffffffffff1673ffffffffffffffffffffffffffffffffffffffff1681526020019081526020016000206000828254611868919061369d565b925050819055506001600360008473ffffffffffffffffffffffffffffffffffffffff1673ffffffffffffffffffffffffffffffffffffffff16815260200190815260200160002060008282546118bf9190613087565b92505081905550816002600083815260200190815260200160002060006101000a81548173ffffffffffffffffffffffffffffffffffffffff021916908373ffffffffffffffffffffffffffffffffffffffff160217905550808273ffffffffffffffffffffffffffffffffffffffff168473ffffffffffffffffffffffffffffffffffffffff167fddf252ad1be2c89b69c2b068fc378daa952ba7f163c4a11628f55a4df523b3ef60405160405180910390a461197e838383611d94565b505050565b6000600660009054906101000a900473ffffffffffffffffffffffffffffffffffffffff16905081600660006101000a81548173ffffffffffffffffffffffffffffffffffffffff021916908373ffffffffffffffffffffffffffffffffffffffff1602179055508173ffffffffffffffffffffffffffffffffffffffff168173ffffffffffffffffffffffffffffffffffffffff167f8be0079c531659141344cd1fd0a4f28419497f9722a3daafe3b4186f6b6457e060405160405180910390a35050565b611a63828260405180602001604052806000815250611d99565b5050565b8173ffffffffffffffffffffffffffffffffffffffff168373ffffffffffffffffffffffffffffffffffffffff1603611ad5576040517f08c379a0000000000000000000000000000000000000000000000000000000008152600401611acc9061371d565b60405180910390fd5b80600560008573ffffffffffffffffffffffffffffffffffffffff1673ffffffffffffffffffffffffffffffffffffffff16815260200190815260200160002060008473ffffffffffffffffffffffffffffffffffffffff1673ffffffffffffffffffffffffffffffffffffffff16815260200190815260200160002060006101000a81548160ff0219169083151502179055508173ffffffffffffffffffffffffffffffffffffffff168373ffffffffffffffffffffffffffffffffffffffff167f17307eab39ab6107e8899845ad3d59bd9653f200f220920489ca2b5937696c3183604051611bc69190612192565b60405180910390a3505050565b611bde84848461171d565b611bea84848484611df4565b611c29576040517f08c379a0000000000000000000000000000000000000000000000000000000008152600401611c20906137af565b60405180910390fd5b50505050565b606060008203611c76576040518060400160405280600181526020017f30000000000000000000000000000000000000000000000000000000000000008152509050611d8a565b600082905060005b60008214611ca8578080611c9190613241565b915050600a82611ca191906137fe565b9150611c7e565b60008167ffffffffffffffff811115611cc457611cc36124d7565b5b6040519080825280601f01601f191660200182016040528015611cf65781602001600182028036833780820191505090505b5090505b60008514611d8357600182611d0f919061369d565b9150600a85611d1e919061382f565b6030611d2a9190613087565b60f81b818381518110611d4057611d3f613860565b5b60200101907effffffffffffffffffffffffffffffffffffffffffffffffffffffffffffff1916908160001a905350600a85611d7c91906137fe565b9450611cfa565b8093505050505b919050565b505050565b505050565b611da38383611f7b565b611db06000848484611df4565b611def576040517f08c379a0000000000000000000000000000000000000000000000000000000008152600401611de6906137af565b60405180910390fd5b505050565b6000611e158473ffffffffffffffffffffffffffffffffffffffff16612154565b15611f6e578373ffffffffffffffffffffffffffffffffffffffff1663150b7a02611e3e61157e565b8786866040518563ffffffff1660e01b8152600401611e6094939291906138e4565b6020604051808303816000875af1925050508015611e9c57506040513d601f19601f82011682018060405250810190611e999190613945565b60015b611f1e573d8060008114611ecc576040519150601f19603f3d011682016040523d82523d6000602084013e611ed1565b606091505b506000815103611f16576040517f08c379a0000000000000000000000000000000000000000000000000000000008152600401611f0d906137af565b60405180910390fd5b805181602001fd5b63150b7a0260e01b7bffffffffffffffffffffffffffffffffffffffffffffffffffffffff1916817bffffffffffffffffffffffffffffffffffffffffffffffffffffffff191614915050611f73565b600190505b949350505050565b600073ffffffffffffffffffffffffffffffffffffffff168273ffffffffffffffffffffffffffffffffffffffff1603611fea576040517f08c379a0000000000000000000000000000000000000000000000000000000008152600401611fe1906139be565b60405180910390fd5b611ff381611512565b15612033576040517f08c379a000000000000000000000000000000000000000000000000000000000815260040161202a90613a2a565b60405180910390fd5b61203f60008383611d8f565b6001600360008473ffffffffffffffffffffffffffffffffffffffff1673ffffffffffffffffffffffffffffffffffffffff168152602001908152602001600020600082825461208f9190613087565b92505081905550816002600083815260200190815260200160002060006101000a81548173ffffffffffffffffffffffffffffffffffffffff021916908373ffffffffffffffffffffffffffffffffffffffff160217905550808273ffffffffffffffffffffffffffffffffffffffff16600073ffffffffffffffffffffffffffffffffffffffff167fddf252ad1be2c89b69c2b068fc378daa952ba7f163c4a11628f55a4df523b3ef60405160405180910390a461215060008383611d94565b5050565b6000808273ffffffffffffffffffffffffffffffffffffffff163b119050919050565b60008115159050919050565b61218c81612177565b82525050565b60006020820190506121a76000830184612183565b92915050565b6000604051905090565b600080fd5b600080fd5b60007fffffffff0000000000000000000000000000000000000000000000000000000082169050919050565b6121f6816121c1565b811461220157600080fd5b50565b600081359050612213816121ed565b92915050565b60006020828403121561222f5761222e6121b7565b5b600061223d84828501612204565b91505092915050565b600081519050919050565b600082825260208201905092915050565b60005b83811015612280578082015181840152602081019050612265565b60008484015250505050565b6000601f19601f8301169050919050565b60006122a882612246565b6122b28185612251565b93506122c2818560208601612262565b6122cb8161228c565b840191505092915050565b600060208201905081810360008301526122f0818461229d565b905092915050565b6000819050919050565b61230b816122f8565b811461231657600080fd5b50565b60008135905061232881612302565b92915050565b600060208284031215612344576123436121b7565b5b600061235284828501612319565b91505092915050565b600073ffffffffffffffffffffffffffffffffffffffff82169050919050565b60006123868261235b565b9050919050565b6123968161237b565b82525050565b60006020820190506123b1600083018461238d565b92915050565b6123c08161237b565b81146123cb57600080fd5b50565b6000813590506123dd816123b7565b92915050565b600080604083850312156123fa576123f96121b7565b5b6000612408858286016123ce565b925050602061241985828601612319565b9150509250929050565b600060208284031215612439576124386121b7565b5b6000612447848285016123ce565b91505092915050565b612459816122f8565b82525050565b60006020820190506124746000830184612450565b92915050565b600080600060608486031215612493576124926121b7565b5b60006124a1868287016123ce565b93505060206124b2868287016123ce565b92505060406124c386828701612319565b9150509250925092565b600080fd5b600080fd5b7f4e487b7100000000000000000000000000000000000000000000000000000000600052604160045260246000fd5b61250f8261228c565b810181811067ffffffffffffffff8211171561252e5761252d6124d7565b5b80604052505050565b60006125416121ad565b905061254d8282612506565b919050565b600067ffffffffffffffff82111561256d5761256c6124d7565b5b6125768261228c565b9050602081019050919050565b82818337600083830152505050565b60006125a56125a084612552565b612537565b9050828152602081018484840111156125c1576125c06124d2565b5b6125cc848285612583565b509392505050565b600082601f8301126125e9576125e86124cd565b5b81356125f9848260208601612592565b91505092915050565b600060208284031215612618576126176121b7565b5b600082013567ffffffffffffffff811115612636576126356121bc565b5b612642848285016125d4565b91505092915050565b61265481612177565b811461265f57600080fd5b50565b6000813590506126718161264b565b92915050565b60006020828403121561268d5761268c6121b7565b5b600061269b84828501612662565b91505092915050565b60006126af8261235b565b9050919050565b6126bf816126a4565b82525050565b60006020820190506126da60008301846126b6565b92915050565b600080604083850312156126f7576126f66121b7565b5b6000612705858286016123ce565b925050602061271685828601612662565b9150509250929050565b600067ffffffffffffffff82111561273b5761273a6124d7565b5b6127448261228c565b9050602081019050919050565b600061276461275f84612720565b612537565b9050828152602081018484840111156127805761277f6124d2565b5b61278b848285612583565b509392505050565b600082601f8301126127a8576127a76124cd565b5b81356127b8848260208601612751565b91505092915050565b600080600080608085870312156127db576127da6121b7565b5b60006127e9878288016123ce565b94505060206127fa878288016123ce565b935050604061280b87828801612319565b925050606085013567ffffffffffffffff81111561282c5761282b6121bc565b5b61283887828801612793565b91505092959194509250565b6000806040838503121561285b5761285a6121b7565b5b6000612869858286016123ce565b925050602061287a858286016123ce565b9150509250929050565b7f4e487b7100000000000000000000000000000000000000000000000000000000600052602260045260246000fd5b600060028204905060018216806128cb57607f821691505b6020821081036128de576128dd612884565b5b50919050565b7f4552433732313a20617070726f76656420717565727920666f72206e6f6e657860008201527f697374656e7420746f6b656e0000000000000000000000000000000000000000602082015250565b6000612940602c83612251565b915061294b826128e4565b604082019050919050565b6000602082019050818103600083015261296f81612933565b9050919050565b7f4552433732313a20617070726f76616c20746f2063757272656e74206f776e6560008201527f7200000000000000000000000000000000000000000000000000000000000000602082015250565b60006129d2602183612251565b91506129dd82612976565b604082019050919050565b60006020820190508181036000830152612a01816129c5565b9050919050565b7f4552433732313a20617070726f76652063616c6c6572206973206e6f74206f7760008201527f6e6572206e6f7220617070726f76656420666f7220616c6c0000000000000000602082015250565b6000612a64603883612251565b9150612a6f82612a08565b604082019050919050565b60006020820190508181036000830152612a9381612a57565b9050919050565b7f4552433732313a207472616e736665722063616c6c6572206973206e6f74206f60008201527f776e6572206e6f7220617070726f766564000000000000000000000000000000602082015250565b6000612af6603183612251565b9150612b0182612a9a565b604082019050919050565b60006020820190508181036000830152612b2581612ae9565b9050919050565b7f4f776e61626c653a2063616c6c6572206973206e6f7420746865206f776e6572600082015250565b6000612b62602083612251565b9150612b6d82612b2c565b602082019050919050565b60006020820190508181036000830152612b9181612b55565b9050919050565b600081905092915050565b50565b6000612bb3600083612b98565b9150612bbe82612ba3565b600082019050919050565b6000612bd482612ba6565b9150819050919050565b7f5769746864726177616c206661696c6564000000000000000000000000000000600082015250565b6000612c14601183612251565b9150612c1f82612bde565b602082019050919050565b60006020820190508181036000830152612c4381612c07565b9050919050565b60008190508160005260206000209050919050565b60006020601f8301049050919050565b600082821b905092915050565b600060088302612cac7fffffffffffffffffffffffffffffffffffffffffffffffffffffffffffffffff82612c6f565b612cb68683612c6f565b95508019841693508086168417925050509392505050565b6000819050919050565b6000612cf3612cee612ce9846122f8565b612cce565b6122f8565b9050919050565b6000819050919050565b612d0d83612cd8565b612d21612d1982612cfa565b848454612c7c565b825550505050565b600090565b612d36612d29565b612d41818484612d04565b505050565b5b81811015612d6557612d5a600082612d2e565b600181019050612d47565b5050565b601f821115612daa57612d7b81612c4a565b612d8484612c5f565b81016020851015612d93578190505b612da7612d9f85612c5f565b830182612d46565b50505b505050565b600082821c905092915050565b6000612dcd60001984600802612daf565b1980831691505092915050565b6000612de68383612dbc565b9150826002028217905092915050565b612dff82612246565b67ffffffffffffffff811115612e1857612e176124d7565b5b612e2282546128b3565b612e2d828285612d69565b600060209050601f831160018114612e605760008415612e4e578287015190505b612e588582612dda565b865550612ec0565b601f198416612e6e86612c4a565b60005b82811015612e9657848901518255600182019150602085019450602081019050612e71565b86831015612eb35784890151612eaf601f891682612dbc565b8355505b6001600288020188555050505b505050505050565b7f4552433732313a206f776e657220717565727920666f72206e6f6e657869737460008201527f656e7420746f6b656e0000000000000000000000000000000000000000000000602082015250565b6000612f24602983612251565b9150612f2f82612ec8565b604082019050919050565b60006020820190508181036000830152612f5381612f17565b9050919050565b7f4552433732313a2062616c616e636520717565727920666f7220746865207a6560008201527f726f206164647265737300000000000000000000000000000000000000000000602082015250565b6000612fb6602a83612251565b9150612fc182612f5a565b604082019050919050565b60006020820190508181036000830152612fe581612fa9565b9050919050565b7f5075626c6963206d696e74696e67206973206e6f7420656e61626c6564000000600082015250565b6000613022601d83612251565b915061302d82612fec565b602082019050919050565b6000602082019050818103600083015261305181613015565b9050919050565b7f4e487b7100000000000000000000000000000000000000000000000000000000600052601160045260246000fd5b6000613092826122f8565b915061309d836122f8565b92508282019050808211156130b5576130b4613058565b5b92915050565b7f536f6c64206f7574000000000000000000000000000000000000000000000000600082015250565b60006130f1600883612251565b91506130fc826130bb565b602082019050919050565b60006020820190508181036000830152613120816130e4565b9050919050565b7f45786365656473206d6178696d756d207065722077616c6c6574000000000000600082015250565b600061315d601a83612251565b915061316882613127565b602082019050919050565b6000602082019050818103600083015261318c81613150565b9050919050565b600061319e826122f8565b91506131a9836122f8565b92508282026131b7816122f8565b915082820484148315176131ce576131cd613058565b5b5092915050565b7f496e73756666696369656e742066756e64730000000000000000000000000000600082015250565b600061320b601283612251565b9150613216826131d5565b602082019050919050565b6000602082019050818103600083015261323a816131fe565b9050919050565b600061324c826122f8565b91507fffffffffffffffffffffffffffffffffffffffffffffffffffffffffffffffff820361327e5761327d613058565b5b600182019050919050565b7f4552433732314d657461646174613a2055524920717565727920666f72206e6f60008201527f6e6578697374656e7420746f6b656e0000000000000000000000000000000000602082015250565b60006132e5602f83612251565b91506132f082613289565b604082019050919050565b60006020820190508181036000830152613314816132d8565b9050919050565b600081905092915050565b60008154613333816128b3565b61333d818661331b565b94506001821660008114613358576001811461336d576133a0565b60ff19831686528115158202860193506133a0565b61337685612c4a565b60005b8381101561339857815481890152600182019150602081019050613379565b838801955050505b50505092915050565b60006133b482612246565b6133be818561331b565b93506133ce818560208601612262565b80840191505092915050565b7f2e6a736f6e000000000000000000000000000000000000000000000000000000600082015250565b600061341060058361331b565b915061341b826133da565b600582019050919050565b60006134328285613326565b915061343e82846133a9565b915061344982613403565b91508190509392505050565b7f4f776e61626c653a206e6577206f776e657220697320746865207a65726f206160008201527f6464726573730000000000000000000000000000000000000000000000000000602082015250565b60006134b1602683612251565b91506134bc82613455565b604082019050919050565b600060208201905081810360008301526134e0816134a4565b9050919050565b7f4552433732313a206f70657261746f7220717565727920666f72206e6f6e657860008201527f697374656e7420746f6b656e0000000000000000000000000000000000000000602082015250565b6000613543602c83612251565b915061354e826134e7565b604082019050919050565b6000602082019050818103600083015261357281613536565b9050919050565b7f4552433732313a207472616e736665722066726f6d20696e636f72726563742060008201527f6f776e6572000000000000000000000000000000000000000000000000000000602082015250565b60006135d5602583612251565b91506135e082613579565b604082019050919050565b60006020820190508181036000830152613604816135c8565b9050919050565b7f4552433732313a207472616e7366657220746f20746865207a65726f2061646460008201527f7265737300000000000000000000000000000000000000000000000000000000602082015250565b6000613667602483612251565b91506136728261360b565b604082019050919050565b600060208201905081810360008301526136968161365a565b9050919050565b60006136a8826122f8565b91506136b3836122f8565b92508282039050818111156136cb576136ca613058565b5b92915050565b7f4552433732313a20617070726f766520746f2063616c6c657200000000000000600082015250565b6000613707601983612251565b9150613712826136d1565b602082019050919050565b60006020820190508181036000830152613736816136fa565b9050919050565b7f4552433732313a207472616e7366657220746f206e6f6e20455243373231526560008201527f63656976657220696d706c656d656e7465720000000000000000000000000000602082015250565b6000613799603283612251565b91506137a48261373d565b604082019050919050565b600060208201905081810360008301526137c88161378c565b9050919050565b7f4e487b7100000000000000000000000000000000000000000000000000000000600052601260045260246000fd5b6000613809826122f8565b9150613814836122f8565b925082613824576138236137cf565b5b828204905092915050565b600061383a826122f8565b9150613845836122f8565b925082613855576138546137cf565b5b828206905092915050565b7f4e487b7100000000000000000000000000000000000000000000000000000000600052603260045260246000fd5b600081519050919050565b600082825260208201905092915050565b60006138b68261388f565b6138c0818561389a565b93506138d0818560208601612262565b6138d98161228c565b840191505092915050565b60006080820190506138f9600083018761238d565b613906602083018661238d565b6139136040830185612450565b818103606083015261392581846138ab565b905095945050505050565b60008151905061393f816121ed565b92915050565b60006020828403121561395b5761395a6121b7565b5b600061396984828501613930565b91505092915050565b7f4552433732313a206d696e7420746f20746865207a65726f2061646472657373600082015250565b60006139a8602083612251565b91506139b382613972565b602082019050919050565b600060208201905081810360008301526139d78161399b565b9050919050565b7f4552433732313a20746f6b656e20616c7265616479206d696e74656400000000600082015250565b6000613a14601c83612251565b9150613a1f826139de565b602082019050919050565b60006020820190508181036000830152613a4381613a07565b905091905056fea264697066735822122042ebd9ff5c8011f533acc53c7d7a2151d693bc71bbbc624bfc0819224dd1c23364736f6c63430008130033",
    "linkReferences": {},
    "deployedLinkReferences": {}
}